{
  "_format": "hh-sol-artifact-1",
  "contractName": "MyEpicNFT",
  "sourceName": "contracts/MyEpicNFT.sol",
  "abi": [
    {
      "inputs": [],
      "stateMutability": "nonpayable",
      "type": "constructor"
    },
    {
      "anonymous": false,
      "inputs": [
        {
          "indexed": true,
          "internalType": "address",
          "name": "owner",
          "type": "address"
        },
        {
          "indexed": true,
          "internalType": "address",
          "name": "approved",
          "type": "address"
        },
        {
          "indexed": true,
          "internalType": "uint256",
          "name": "tokenId",
          "type": "uint256"
        }
      ],
      "name": "Approval",
      "type": "event"
    },
    {
      "anonymous": false,
      "inputs": [
        {
          "indexed": true,
          "internalType": "address",
          "name": "owner",
          "type": "address"
        },
        {
          "indexed": true,
          "internalType": "address",
          "name": "operator",
          "type": "address"
        },
        {
          "indexed": false,
          "internalType": "bool",
          "name": "approved",
          "type": "bool"
        }
      ],
      "name": "ApprovalForAll",
      "type": "event"
    },
    {
      "anonymous": false,
      "inputs": [
        {
          "indexed": false,
          "internalType": "address",
          "name": "sender",
          "type": "address"
        },
        {
          "indexed": false,
          "internalType": "uint256",
          "name": "tokenId",
          "type": "uint256"
        }
      ],
      "name": "NewEpicNFtMinted",
      "type": "event"
    },
    {
      "anonymous": false,
      "inputs": [
        {
          "indexed": true,
          "internalType": "address",
          "name": "from",
          "type": "address"
        },
        {
          "indexed": true,
          "internalType": "address",
          "name": "to",
          "type": "address"
        },
        {
          "indexed": true,
          "internalType": "uint256",
          "name": "tokenId",
          "type": "uint256"
        }
      ],
      "name": "Transfer",
      "type": "event"
    },
    {
      "inputs": [
        {
          "internalType": "address",
          "name": "to",
          "type": "address"
        },
        {
          "internalType": "uint256",
          "name": "tokenId",
          "type": "uint256"
        }
      ],
      "name": "approve",
      "outputs": [],
      "stateMutability": "nonpayable",
      "type": "function"
    },
    {
      "inputs": [
        {
          "internalType": "address",
          "name": "owner",
          "type": "address"
        }
      ],
      "name": "balanceOf",
      "outputs": [
        {
          "internalType": "uint256",
          "name": "",
          "type": "uint256"
        }
      ],
      "stateMutability": "view",
      "type": "function"
    },
    {
      "inputs": [
        {
          "internalType": "uint256",
          "name": "tokenId",
          "type": "uint256"
        }
      ],
      "name": "getApproved",
      "outputs": [
        {
          "internalType": "address",
          "name": "",
          "type": "address"
        }
      ],
      "stateMutability": "view",
      "type": "function"
    },
    {
      "inputs": [],
      "name": "getTotalNFTsMintedSoFar",
      "outputs": [
        {
          "internalType": "uint256",
          "name": "",
          "type": "uint256"
        }
      ],
      "stateMutability": "view",
      "type": "function"
    },
    {
      "inputs": [
        {
          "internalType": "address",
          "name": "owner",
          "type": "address"
        },
        {
          "internalType": "address",
          "name": "operator",
          "type": "address"
        }
      ],
      "name": "isApprovedForAll",
      "outputs": [
        {
          "internalType": "bool",
          "name": "",
          "type": "bool"
        }
      ],
      "stateMutability": "view",
      "type": "function"
    },
    {
      "inputs": [],
      "name": "makeAnEpicNFT",
      "outputs": [],
      "stateMutability": "nonpayable",
      "type": "function"
    },
    {
      "inputs": [],
      "name": "name",
      "outputs": [
        {
          "internalType": "string",
          "name": "",
          "type": "string"
        }
      ],
      "stateMutability": "view",
      "type": "function"
    },
    {
      "inputs": [
        {
          "internalType": "uint256",
          "name": "tokenId",
          "type": "uint256"
        }
      ],
      "name": "ownerOf",
      "outputs": [
        {
          "internalType": "address",
          "name": "",
          "type": "address"
        }
      ],
      "stateMutability": "view",
      "type": "function"
    },
    {
      "inputs": [
        {
          "internalType": "uint256",
          "name": "tokenId",
          "type": "uint256"
        }
      ],
      "name": "pickRandomColor",
      "outputs": [
        {
          "internalType": "string",
          "name": "",
          "type": "string"
        }
      ],
      "stateMutability": "view",
      "type": "function"
    },
    {
      "inputs": [
        {
          "internalType": "uint256",
          "name": "tokenId",
          "type": "uint256"
        }
      ],
      "name": "pickRandomFirstWord",
      "outputs": [
        {
          "internalType": "string",
          "name": "",
          "type": "string"
        }
      ],
      "stateMutability": "view",
      "type": "function"
    },
    {
      "inputs": [
        {
          "internalType": "uint256",
          "name": "tokenId",
          "type": "uint256"
        }
      ],
      "name": "pickRandomSecondWord",
      "outputs": [
        {
          "internalType": "string",
          "name": "",
          "type": "string"
        }
      ],
      "stateMutability": "view",
      "type": "function"
    },
    {
      "inputs": [
        {
          "internalType": "uint256",
          "name": "tokenId",
          "type": "uint256"
        }
      ],
      "name": "pickRandomThirdWord",
      "outputs": [
        {
          "internalType": "string",
          "name": "",
          "type": "string"
        }
      ],
      "stateMutability": "view",
      "type": "function"
    },
    {
      "inputs": [
        {
          "internalType": "address",
          "name": "from",
          "type": "address"
        },
        {
          "internalType": "address",
          "name": "to",
          "type": "address"
        },
        {
          "internalType": "uint256",
          "name": "tokenId",
          "type": "uint256"
        }
      ],
      "name": "safeTransferFrom",
      "outputs": [],
      "stateMutability": "nonpayable",
      "type": "function"
    },
    {
      "inputs": [
        {
          "internalType": "address",
          "name": "from",
          "type": "address"
        },
        {
          "internalType": "address",
          "name": "to",
          "type": "address"
        },
        {
          "internalType": "uint256",
          "name": "tokenId",
          "type": "uint256"
        },
        {
          "internalType": "bytes",
          "name": "_data",
          "type": "bytes"
        }
      ],
      "name": "safeTransferFrom",
      "outputs": [],
      "stateMutability": "nonpayable",
      "type": "function"
    },
    {
      "inputs": [
        {
          "internalType": "address",
          "name": "operator",
          "type": "address"
        },
        {
          "internalType": "bool",
          "name": "approved",
          "type": "bool"
        }
      ],
      "name": "setApprovalForAll",
      "outputs": [],
      "stateMutability": "nonpayable",
      "type": "function"
    },
    {
      "inputs": [
        {
          "internalType": "bytes4",
          "name": "interfaceId",
          "type": "bytes4"
        }
      ],
      "name": "supportsInterface",
      "outputs": [
        {
          "internalType": "bool",
          "name": "",
          "type": "bool"
        }
      ],
      "stateMutability": "view",
      "type": "function"
    },
    {
      "inputs": [],
      "name": "symbol",
      "outputs": [
        {
          "internalType": "string",
          "name": "",
          "type": "string"
        }
      ],
      "stateMutability": "view",
      "type": "function"
    },
    {
      "inputs": [
        {
          "internalType": "uint256",
          "name": "tokenId",
          "type": "uint256"
        }
      ],
      "name": "tokenURI",
      "outputs": [
        {
          "internalType": "string",
          "name": "",
          "type": "string"
        }
      ],
      "stateMutability": "view",
      "type": "function"
    },
    {
      "inputs": [
        {
          "internalType": "address",
          "name": "from",
          "type": "address"
        },
        {
          "internalType": "address",
          "name": "to",
          "type": "address"
        },
        {
          "internalType": "uint256",
          "name": "tokenId",
          "type": "uint256"
        }
      ],
      "name": "transferFrom",
      "outputs": [],
      "stateMutability": "nonpayable",
      "type": "function"
    }
  ],
  "bytecode": "0x608060405260405180610100016040528060d3815260200162004e7060d39139600890805190602001906200003692919062000f55565b5060405180608001604052806056815260200162004f4360569139600990805190602001906200006892919062000f55565b50604051806101e001604052806040518060400160405280600681526020017f5072696e6365000000000000000000000000000000000000000000000000000081525081526020016040518060400160405280600881526020017f5072696e6365737300000000000000000000000000000000000000000000000081525081526020016040518060400160405280600581526020017f536b656e6500000000000000000000000000000000000000000000000000000081525081526020016040518060400160405280600681526020017f446976696e65000000000000000000000000000000000000000000000000000081525081526020016040518060400160405280600681526020017f4b656c76696e000000000000000000000000000000000000000000000000000081525081526020016040518060400160405280600581526020017f4c6175726100000000000000000000000000000000000000000000000000000081525081526020016040518060400160405280600781526020017f53696e676c65740000000000000000000000000000000000000000000000000081525081526020016040518060400160405280600681526020017f4475706f6e74000000000000000000000000000000000000000000000000000081525081526020016040518060400160405280600481526020017f4d6574610000000000000000000000000000000000000000000000000000000081525081526020016040518060400160405280600381526020017f416665000000000000000000000000000000000000000000000000000000000081525081526020016040518060400160405280600581526020017f5465736c6100000000000000000000000000000000000000000000000000000081525081526020016040518060400160405280600481526020017f4d75736b0000000000000000000000000000000000000000000000000000000081525081526020016040518060400160405280600881526020017f496e7465726e657400000000000000000000000000000000000000000000000081525081526020016040518060400160405280600681526020017f4c6561677565000000000000000000000000000000000000000000000000000081525081526020016040518060400160405280600581526020017f546f77656c000000000000000000000000000000000000000000000000000000815250815250600a90600f620003fa92919062000fe6565b50604051806101e001604052806040518060400160405280600781526020017f436861726c65730000000000000000000000000000000000000000000000000081525081526020016040518060400160405280600881526020017f416d61636872656500000000000000000000000000000000000000000000000081525081526020016040518060400160405280600481526020017f486f70650000000000000000000000000000000000000000000000000000000081525081526020016040518060400160405280600681526020017f537175617265000000000000000000000000000000000000000000000000000081525081526020016040518060400160405280600581526020017f477265656e00000000000000000000000000000000000000000000000000000081525081526020016040518060400160405280600581526020017f506c61746500000000000000000000000000000000000000000000000000000081525081526020016040518060400160405280600881526020017f506c616e7461696e00000000000000000000000000000000000000000000000081525081526020016040518060400160405280600781526020017f47616d654465760000000000000000000000000000000000000000000000000081525081526020016040518060400160405280600781526020017f43617264616e6f0000000000000000000000000000000000000000000000000081525081526020016040518060400160405280600581526020017f4162756a6100000000000000000000000000000000000000000000000000000081525081526020016040518060400160405280600581526020017f576172726900000000000000000000000000000000000000000000000000000081525081526020016040518060400160405280600c81526020017f506f7274486172636f757274000000000000000000000000000000000000000081525081526020016040518060400160405280600581526020017f4c61676f7300000000000000000000000000000000000000000000000000000081525081526020016040518060400160405280600681526020017f49626164616e000000000000000000000000000000000000000000000000000081525081526020016040518060400160405280600781526020017f426179656c736100000000000000000000000000000000000000000000000000815250815250600b90600f6200078c92919062000fe6565b50604051806101e001604052806040518060400160405280600681526020017f476f6f676c65000000000000000000000000000000000000000000000000000081525081526020016040518060400160405280600581526020017f576174636800000000000000000000000000000000000000000000000000000081525081526020016040518060400160405280600581526020017f436c6f636b00000000000000000000000000000000000000000000000000000081525081526020016040518060400160405280600781526020017f416972706f64730000000000000000000000000000000000000000000000000081525081526020016040518060400160405280600681526020017f4a61636b6574000000000000000000000000000000000000000000000000000081525081526020016040518060400160405280600a81526020017f5a616d696e616d696e610000000000000000000000000000000000000000000081525081526020016040518060400160405280600681526020017f52616e646f6d000000000000000000000000000000000000000000000000000081525081526020016040518060400160405280600b81526020017f436f6c6c65637469626c6500000000000000000000000000000000000000000081525081526020016040518060400160405280600881526020017f54726f757365727300000000000000000000000000000000000000000000000081525081526020016040518060400160405280600781526020017f53706163652d780000000000000000000000000000000000000000000000000081525081526020016040518060400160405280600681526020017f426f72696e67000000000000000000000000000000000000000000000000000081525081526020016040518060400160405280600e81526020017f4865776c65742d5061636b61726400000000000000000000000000000000000081525081526020016040518060400160405280600a81526020017f4d6f64756c6174696f6e0000000000000000000000000000000000000000000081525081526020016040518060400160405280600981526020017f43617262656e61726f000000000000000000000000000000000000000000000081525081526020016040518060400160405280600481526020017f57696c6c00000000000000000000000000000000000000000000000000000000815250815250600c90600f62000b1e92919062000fe6565b506040518061014001604052806040518060400160405280600381526020017f726564000000000000000000000000000000000000000000000000000000000081525081526020016040518060400160405280600781526020017f233038433241380000000000000000000000000000000000000000000000000081525081526020016040518060400160405280600581526020017f626c61636b00000000000000000000000000000000000000000000000000000081525081526020016040518060400160405280600681526020017f79656c6c6f77000000000000000000000000000000000000000000000000000081525081526020016040518060400160405280600481526020017f626c75650000000000000000000000000000000000000000000000000000000081525081526020016040518060400160405280600581526020017f677265656e00000000000000000000000000000000000000000000000000000081525081526020016040518060400160405280600681526020017f707572706c65000000000000000000000000000000000000000000000000000081525081526020016040518060400160405280600681526020017f6f72616e6765000000000000000000000000000000000000000000000000000081525081526020016040518060400160405280600481526020017f677261790000000000000000000000000000000000000000000000000000000081525081526020016040518060400160405280600581526020017f62726f776e000000000000000000000000000000000000000000000000000000815250815250600d90600a62000d899291906200104d565b5034801562000d9757600080fd5b506040518060400160405280600981526020017f5371756172654e465400000000000000000000000000000000000000000000008152506040518060400160405280600681526020017f5351554152450000000000000000000000000000000000000000000000000000815250816000908051906020019062000e1c92919062000f55565b50806001908051906020019062000e3592919062000f55565b50505062000e836040518060400160405280601e81526020017f54686973206973206d79204e465420636f6e74726163742e20576f616821000081525062000e8960201b6200146b1760201c565b6200126e565b62000f298160405160240162000ea0919062001182565b6040516020818303038152906040527f41304fac000000000000000000000000000000000000000000000000000000007bffffffffffffffffffffffffffffffffffffffffffffffffffffffff19166020820180517bffffffffffffffffffffffffffffffffffffffffffffffffffffffff838183161783525050505062000f2c60201b60201c565b50565b60008151905060006a636f6e736f6c652e6c6f679050602083016000808483855afa5050505050565b82805462000f6390620011f8565b90600052602060002090601f01602090048101928262000f87576000855562000fd3565b82601f1062000fa257805160ff191683800117855562000fd3565b8280016001018555821562000fd3579182015b8281111562000fd257825182559160200191906001019062000fb5565b5b50905062000fe29190620010b4565b5090565b8280548282559060005260206000209081019282156200103a579160200282015b82811115620010395782518290805190602001906200102892919062000f55565b509160200191906001019062001007565b5b509050620010499190620010d3565b5090565b828054828255906000526020600020908101928215620010a1579160200282015b82811115620010a05782518290805190602001906200108f92919062000f55565b50916020019190600101906200106e565b5b509050620010b09190620010d3565b5090565b5b80821115620010cf576000816000905550600101620010b5565b5090565b5b80821115620010f75760008181620010ed9190620010fb565b50600101620010d4565b5090565b5080546200110990620011f8565b6000825580601f106200111d57506200113e565b601f0160209004906000526020600020908101906200113d9190620010b4565b5b50565b60006200114e82620011a6565b6200115a8185620011b1565b93506200116c818560208601620011c2565b62001177816200125d565b840191505092915050565b600060208201905081810360008301526200119e818462001141565b905092915050565b600081519050919050565b600082825260208201905092915050565b60005b83811015620011e2578082015181840152602081019050620011c5565b83811115620011f2576000848401525b50505050565b600060028204905060018216806200121157607f821691505b602082108114156200122857620012276200122e565b5b50919050565b7f4e487b7100000000000000000000000000000000000000000000000000000000600052602260045260246000fd5b6000601f19601f8301169050919050565b613bf2806200127e6000396000f3fe608060405234801561001057600080fd5b50600436106101215760003560e01c80636352211e116100ad578063b88d4fde11610071578063b88d4fde14610340578063c575757a1461035c578063c87b56dd1461038c578063de9d132f146103bc578063e985e9c5146103c657610121565b80636352211e1461027657806370a08231146102a657806395d89b41146102d6578063a22cb465146102f4578063b187301f1461031057610121565b8063095ea7b3116100f4578063095ea7b3146101c257806323b872dd146101de5780632de38d68146101fa57806342842e0e1461022a578063514dc8c61461024657610121565b806301ffc9a714610126578063060475901461015657806306fdde0314610174578063081812fc14610192575b600080fd5b610140600480360381019061013b919061279a565b6103f6565b60405161014d9190613438565b60405180910390f35b61015e6104d8565b60405161016b91906136e3565b60405180910390f35b61017c610531565b6040516101899190613453565b60405180910390f35b6101ac60048036038101906101a791906127ec565b6105c3565b6040516101b991906133a8565b60405180910390f35b6101dc60048036038101906101d7919061275e565b610648565b005b6101f860048036038101906101f39190612658565b610760565b005b610214600480360381019061020f91906127ec565b6107c0565b6040516102219190613453565b60405180910390f35b610244600480360381019061023f9190612658565b6108de565b005b610260600480360381019061025b91906127ec565b6108fe565b60405161026d9190613453565b60405180910390f35b610290600480360381019061028b91906127ec565b610a1c565b60405161029d91906133a8565b60405180910390f35b6102c060048036038101906102bb91906125f3565b610ace565b6040516102cd91906136e3565b60405180910390f35b6102de610b86565b6040516102eb9190613453565b60405180910390f35b61030e60048036038101906103099190612722565b610c18565b005b61032a600480360381019061032591906127ec565b610d99565b6040516103379190613453565b60405180910390f35b61035a600480360381019061035591906126a7565b610eb7565b005b610376600480360381019061037191906127ec565b610f19565b6040516103839190613453565b60405180910390f35b6103a660048036038101906103a191906127ec565b611037565b6040516103b39190613453565b60405180910390f35b6103c4611189565b005b6103e060048036038101906103db919061261c565b6113d7565b6040516103ed9190613438565b60405180910390f35b60007f80ac58cd000000000000000000000000000000000000000000000000000000007bffffffffffffffffffffffffffffffffffffffffffffffffffffffff1916827bffffffffffffffffffffffffffffffffffffffffffffffffffffffff191614806104c157507f5b5e139f000000000000000000000000000000000000000000000000000000007bffffffffffffffffffffffffffffffffffffffffffffffffffffffff1916827bffffffffffffffffffffffffffffffffffffffffffffffffffffffff1916145b806104d157506104d082611504565b5b9050919050565b60006105226040518060400160405280600281526020017f696400000000000000000000000000000000000000000000000000000000000081525061051d600761156e565b61157c565b61052c600761156e565b905090565b60606000805461054090613982565b80601f016020809104026020016040519081016040528092919081815260200182805461056c90613982565b80156105b95780601f1061058e576101008083540402835291602001916105b9565b820191906000526020600020905b81548152906001019060200180831161059c57829003601f168201915b5050505050905090565b60006105ce82611618565b61060d576040517f08c379a000000000000000000000000000000000000000000000000000000000815260040161060490613643565b60405180910390fd5b6004600083815260200190815260200160002060009054906101000a900473ffffffffffffffffffffffffffffffffffffffff169050919050565b600061065382610a1c565b90508073ffffffffffffffffffffffffffffffffffffffff168373ffffffffffffffffffffffffffffffffffffffff1614156106c4576040517f08c379a00000000000000000000000000000000000000000000000000000000081526004016106bb906136a3565b60405180910390fd5b8073ffffffffffffffffffffffffffffffffffffffff166106e3611684565b73ffffffffffffffffffffffffffffffffffffffff16148061071257506107118161070c611684565b6113d7565b5b610751576040517f08c379a000000000000000000000000000000000000000000000000000000000815260040161074890613583565b60405180910390fd5b61075b838361168c565b505050565b61077161076b611684565b82611745565b6107b0576040517f08c379a00000000000000000000000000000000000000000000000000000000081526004016107a7906136c3565b60405180910390fd5b6107bb838383611823565b505050565b606060006107f46107d084611a7f565b6040516020016107e09190613342565b604051602081830303815290604052611c2c565b9050600a805490508161080791906139fd565b9050600a8181548110610843577f4e487b7100000000000000000000000000000000000000000000000000000000600052603260045260246000fd5b90600052602060002001805461085890613982565b80601f016020809104026020016040519081016040528092919081815260200182805461088490613982565b80156108d15780601f106108a6576101008083540402835291602001916108d1565b820191906000526020600020905b8154815290600101906020018083116108b457829003601f168201915b5050505050915050919050565b6108f983838360405180602001604052806000815250610eb7565b505050565b6060600061093261090e84611a7f565b60405160200161091e9190613386565b604051602081830303815290604052611c2c565b9050600d805490508161094591906139fd565b9050600d8181548110610981577f4e487b7100000000000000000000000000000000000000000000000000000000600052603260045260246000fd5b90600052602060002001805461099690613982565b80601f01602080910402602001604051908101604052809291908181526020018280546109c290613982565b8015610a0f5780601f106109e457610100808354040283529160200191610a0f565b820191906000526020600020905b8154815290600101906020018083116109f257829003601f168201915b5050505050915050919050565b6000806002600084815260200190815260200160002060009054906101000a900473ffffffffffffffffffffffffffffffffffffffff169050600073ffffffffffffffffffffffffffffffffffffffff168173ffffffffffffffffffffffffffffffffffffffff161415610ac5576040517f08c379a0000000000000000000000000000000000000000000000000000000008152600401610abc906135c3565b60405180910390fd5b80915050919050565b60008073ffffffffffffffffffffffffffffffffffffffff168273ffffffffffffffffffffffffffffffffffffffff161415610b3f576040517f08c379a0000000000000000000000000000000000000000000000000000000008152600401610b36906135a3565b60405180910390fd5b600360008373ffffffffffffffffffffffffffffffffffffffff1673ffffffffffffffffffffffffffffffffffffffff168152602001908152602001600020549050919050565b606060018054610b9590613982565b80601f0160208091040260200160405190810160405280929190818152602001828054610bc190613982565b8015610c0e5780601f10610be357610100808354040283529160200191610c0e565b820191906000526020600020905b815481529060010190602001808311610bf157829003601f168201915b5050505050905090565b610c20611684565b73ffffffffffffffffffffffffffffffffffffffff168273ffffffffffffffffffffffffffffffffffffffff161415610c8e576040517f08c379a0000000000000000000000000000000000000000000000000000000008152600401610c8590613543565b60405180910390fd5b8060056000610c9b611684565b73ffffffffffffffffffffffffffffffffffffffff1673ffffffffffffffffffffffffffffffffffffffff16815260200190815260200160002060008473ffffffffffffffffffffffffffffffffffffffff1673ffffffffffffffffffffffffffffffffffffffff16815260200190815260200160002060006101000a81548160ff0219169083151502179055508173ffffffffffffffffffffffffffffffffffffffff16610d48611684565b73ffffffffffffffffffffffffffffffffffffffff167f17307eab39ab6107e8899845ad3d59bd9653f200f220920489ca2b5937696c3183604051610d8d9190613438565b60405180910390a35050565b60606000610dcd610da984611a7f565b604051602001610db99190613320565b604051602081830303815290604052611c2c565b9050600b8054905081610de091906139fd565b9050600b8181548110610e1c577f4e487b7100000000000000000000000000000000000000000000000000000000600052603260045260246000fd5b906000526020600020018054610e3190613982565b80601f0160208091040260200160405190810160405280929190818152602001828054610e5d90613982565b8015610eaa5780601f10610e7f57610100808354040283529160200191610eaa565b820191906000526020600020905b815481529060010190602001808311610e8d57829003601f168201915b5050505050915050919050565b610ec8610ec2611684565b83611745565b610f07576040517f08c379a0000000000000000000000000000000000000000000000000000000008152600401610efe906136c3565b60405180910390fd5b610f1384848484611c5f565b50505050565b60606000610f4d610f2984611a7f565b604051602001610f3991906132fe565b604051602081830303815290604052611c2c565b9050600c8054905081610f6091906139fd565b9050600c8181548110610f9c577f4e487b7100000000000000000000000000000000000000000000000000000000600052603260045260246000fd5b906000526020600020018054610fb190613982565b80601f0160208091040260200160405190810160405280929190818152602001828054610fdd90613982565b801561102a5780601f10610fff5761010080835404028352916020019161102a565b820191906000526020600020905b81548152906001019060200180831161100d57829003601f168201915b5050505050915050919050565b606061104282611618565b611081576040517f08c379a000000000000000000000000000000000000000000000000000000000815260040161107890613623565b60405180910390fd5b60006006600084815260200190815260200160002080546110a190613982565b80601f01602080910402602001604051908101604052809291908181526020018280546110cd90613982565b801561111a5780601f106110ef5761010080835404028352916020019161111a565b820191906000526020600020905b8154815290600101906020018083116110fd57829003601f168201915b50505050509050600061112b611cbb565b9050600081511415611141578192505050611184565b60008251111561117657808260405160200161115e92919061321b565b60405160208183030381529060405292505050611184565b61117f84611cd2565b925050505b919050565b6000611195600761156e565b905060328111156111a557600080fd5b60006111b0826107c0565b905060006111bd83610d99565b905060006111ca84610f19565b905060008383836040516020016111e39392919061323f565b604051602081830303815290604052905060006111ff866108fe565b9050600060088260098560405160200161121c9493929190613270565b604051602081830303815290604052905060006112618461123c84611d79565b60405160200161124d9291906132b9565b604051602081830303815290604052611d79565b90506000816040516020016112769190613364565b60405160208183030381529060405290506112c56040518060400160405280601581526020017f0a2d2d2d2d2d2d2d2d2d2d2d2d2d2d2d2d2d2d2d2d000000000000000000000081525061146b565b6112ce8161146b565b61130c6040518060400160405280601581526020017f2d2d2d2d2d2d2d2d2d2d2d2d2d2d2d2d2d2d2d2d0a000000000000000000000081525061146b565b611316338a611f37565b6113208982611f55565b611343604051806060016040528060258152602001613b58602591398a33611fc9565b61134d6007612068565b6113936040518060400160405280600681526020017f746f74616c3a000000000000000000000000000000000000000000000000000081525061138e6104d8565b61157c565b7f3a5f70e1321b122698fa206586e3506f028a4e264480f713536076a93addf59b338a6040516113c492919061340f565b60405180910390a1505050505050505050565b6000600560008473ffffffffffffffffffffffffffffffffffffffff1673ffffffffffffffffffffffffffffffffffffffff16815260200190815260200160002060008373ffffffffffffffffffffffffffffffffffffffff1673ffffffffffffffffffffffffffffffffffffffff16815260200190815260200160002060009054906101000a900460ff16905092915050565b6115018160405160240161147f9190613453565b6040516020818303038152906040527f41304fac000000000000000000000000000000000000000000000000000000007bffffffffffffffffffffffffffffffffffffffffffffffffffffffff19166020820180517bffffffffffffffffffffffffffffffffffffffffffffffffffffffff838183161783525050505061207e565b50565b60007f01ffc9a7000000000000000000000000000000000000000000000000000000007bffffffffffffffffffffffffffffffffffffffffffffffffffffffff1916827bffffffffffffffffffffffffffffffffffffffffffffffffffffffff1916149050919050565b600081600001549050919050565b6116148282604051602401611592929190613475565b6040516020818303038152906040527f9710a9d0000000000000000000000000000000000000000000000000000000007bffffffffffffffffffffffffffffffffffffffffffffffffffffffff19166020820180517bffffffffffffffffffffffffffffffffffffffffffffffffffffffff838183161783525050505061207e565b5050565b60008073ffffffffffffffffffffffffffffffffffffffff166002600084815260200190815260200160002060009054906101000a900473ffffffffffffffffffffffffffffffffffffffff1673ffffffffffffffffffffffffffffffffffffffff1614159050919050565b600033905090565b816004600083815260200190815260200160002060006101000a81548173ffffffffffffffffffffffffffffffffffffffff021916908373ffffffffffffffffffffffffffffffffffffffff160217905550808273ffffffffffffffffffffffffffffffffffffffff166116ff83610a1c565b73ffffffffffffffffffffffffffffffffffffffff167f8c5be1e5ebec7d5bd14f71427d1e84f3dd0314c0f7b2291e5b200ac8c7c3b92560405160405180910390a45050565b600061175082611618565b61178f576040517f08c379a000000000000000000000000000000000000000000000000000000000815260040161178690613563565b60405180910390fd5b600061179a83610a1c565b90508073ffffffffffffffffffffffffffffffffffffffff168473ffffffffffffffffffffffffffffffffffffffff16148061180957508373ffffffffffffffffffffffffffffffffffffffff166117f1846105c3565b73ffffffffffffffffffffffffffffffffffffffff16145b8061181a575061181981856113d7565b5b91505092915050565b8273ffffffffffffffffffffffffffffffffffffffff1661184382610a1c565b73ffffffffffffffffffffffffffffffffffffffff1614611899576040517f08c379a000000000000000000000000000000000000000000000000000000000815260040161189090613663565b60405180910390fd5b600073ffffffffffffffffffffffffffffffffffffffff168273ffffffffffffffffffffffffffffffffffffffff161415611909576040517f08c379a000000000000000000000000000000000000000000000000000000000815260040161190090613523565b60405180910390fd5b6119148383836120a7565b61191f60008261168c565b6001600360008573ffffffffffffffffffffffffffffffffffffffff1673ffffffffffffffffffffffffffffffffffffffff168152602001908152602001600020600082825461196f9190613898565b925050819055506001600360008473ffffffffffffffffffffffffffffffffffffffff1673ffffffffffffffffffffffffffffffffffffffff16815260200190815260200160002060008282546119c691906137b7565b92505081905550816002600083815260200190815260200160002060006101000a81548173ffffffffffffffffffffffffffffffffffffffff021916908373ffffffffffffffffffffffffffffffffffffffff160217905550808273ffffffffffffffffffffffffffffffffffffffff168473ffffffffffffffffffffffffffffffffffffffff167fddf252ad1be2c89b69c2b068fc378daa952ba7f163c4a11628f55a4df523b3ef60405160405180910390a4505050565b60606000821415611ac7576040518060400160405280600181526020017f30000000000000000000000000000000000000000000000000000000000000008152509050611c27565b600082905060005b60008214611af9578080611ae2906139b4565b915050600a82611af2919061380d565b9150611acf565b60008167ffffffffffffffff811115611b3b577f4e487b7100000000000000000000000000000000000000000000000000000000600052604160045260246000fd5b6040519080825280601f01601f191660200182016040528015611b6d5781602001600182028036833780820191505090505b5090505b60008514611c2057600182611b869190613898565b9150600a85611b9591906139fd565b6030611ba191906137b7565b60f81b818381518110611bdd577f4e487b7100000000000000000000000000000000000000000000000000000000600052603260045260246000fd5b60200101907effffffffffffffffffffffffffffffffffffffffffffffffffffffffffffff1916908160001a905350600a85611c19919061380d565b9450611b71565b8093505050505b919050565b600081604051602001611c3f9190613204565b6040516020818303038152906040528051906020012060001c9050919050565b611c6a848484611823565b611c76848484846120ac565b611cb5576040517f08c379a0000000000000000000000000000000000000000000000000000000008152600401611cac906134e3565b60405180910390fd5b50505050565b606060405180602001604052806000815250905090565b6060611cdd82611618565b611d1c576040517f08c379a0000000000000000000000000000000000000000000000000000000008152600401611d1390613683565b60405180910390fd5b6000611d26611cbb565b90506000815111611d465760405180602001604052806000815250611d71565b80611d5084611a7f565b604051602001611d6192919061321b565b6040516020818303038152906040525b915050919050565b60606000825190506000811415611da25760405180602001604052806000815250915050611f32565b60006003600283611db391906137b7565b611dbd919061380d565b6004611dc9919061383e565b90506000602082611dda91906137b7565b67ffffffffffffffff811115611e19577f4e487b7100000000000000000000000000000000000000000000000000000000600052604160045260246000fd5b6040519080825280601f01601f191660200182016040528015611e4b5781602001600182028036833780820191505090505b5090506000604051806060016040528060408152602001613b7d604091399050600181016020830160005b86811015611eef5760038101905062ffffff818a015116603f8160121c168401518060081b905060ff603f83600c1c1686015116810190508060081b905060ff603f8360061c1686015116810190508060081b905060ff603f831686015116810190508060e01b90508084526004840193505050611e76565b506003860660018114611f095760028114611f1957611f24565b613d3d60f01b6002830352611f24565b603d60f81b60018303525b508484525050819450505050505b919050565b611f51828260405180602001604052806000815250612243565b5050565b611f5e82611618565b611f9d576040517f08c379a0000000000000000000000000000000000000000000000000000000008152600401611f94906135e3565b60405180910390fd5b80600660008481526020019081526020016000209080519060200190611fc492919061247f565b505050565b612063838383604051602401611fe1939291906134a5565b6040516020818303038152906040527fe3849f79000000000000000000000000000000000000000000000000000000007bffffffffffffffffffffffffffffffffffffffffffffffffffffffff19166020820180517bffffffffffffffffffffffffffffffffffffffffffffffffffffffff838183161783525050505061207e565b505050565b6001816000016000828254019250508190555050565b60008151905060006a636f6e736f6c652e6c6f679050602083016000808483855afa5050505050565b505050565b60006120cd8473ffffffffffffffffffffffffffffffffffffffff1661229e565b15612236578373ffffffffffffffffffffffffffffffffffffffff1663150b7a026120f6611684565b8786866040518563ffffffff1660e01b815260040161211894939291906133c3565b602060405180830381600087803b15801561213257600080fd5b505af192505050801561216357506040513d601f19601f8201168201806040525081019061216091906127c3565b60015b6121e6573d8060008114612193576040519150601f19603f3d011682016040523d82523d6000602084013e612198565b606091505b506000815114156121de576040517f08c379a00000000000000000000000000000000000000000000000000000000081526004016121d5906134e3565b60405180910390fd5b805181602001fd5b63150b7a0260e01b7bffffffffffffffffffffffffffffffffffffffffffffffffffffffff1916817bffffffffffffffffffffffffffffffffffffffffffffffffffffffff19161491505061223b565b600190505b949350505050565b61224d83836122b1565b61225a60008484846120ac565b612299576040517f08c379a0000000000000000000000000000000000000000000000000000000008152600401612290906134e3565b60405180910390fd5b505050565b600080823b905060008111915050919050565b600073ffffffffffffffffffffffffffffffffffffffff168273ffffffffffffffffffffffffffffffffffffffff161415612321576040517f08c379a000000000000000000000000000000000000000000000000000000000815260040161231890613603565b60405180910390fd5b61232a81611618565b1561236a576040517f08c379a000000000000000000000000000000000000000000000000000000000815260040161236190613503565b60405180910390fd5b612376600083836120a7565b6001600360008473ffffffffffffffffffffffffffffffffffffffff1673ffffffffffffffffffffffffffffffffffffffff16815260200190815260200160002060008282546123c691906137b7565b92505081905550816002600083815260200190815260200160002060006101000a81548173ffffffffffffffffffffffffffffffffffffffff021916908373ffffffffffffffffffffffffffffffffffffffff160217905550808273ffffffffffffffffffffffffffffffffffffffff16600073ffffffffffffffffffffffffffffffffffffffff167fddf252ad1be2c89b69c2b068fc378daa952ba7f163c4a11628f55a4df523b3ef60405160405180910390a45050565b82805461248b90613982565b90600052602060002090601f0160209004810192826124ad57600085556124f4565b82601f106124c657805160ff19168380011785556124f4565b828001600101855582156124f4579182015b828111156124f35782518255916020019190600101906124d8565b5b5090506125019190612505565b5090565b5b8082111561251e576000816000905550600101612506565b5090565b60006125356125308461372f565b6136fe565b90508281526020810184848401111561254d57600080fd5b612558848285613940565b509392505050565b60008135905061256f81613afb565b92915050565b60008135905061258481613b12565b92915050565b60008135905061259981613b29565b92915050565b6000815190506125ae81613b29565b92915050565b600082601f8301126125c557600080fd5b81356125d5848260208601612522565b91505092915050565b6000813590506125ed81613b40565b92915050565b60006020828403121561260557600080fd5b600061261384828501612560565b91505092915050565b6000806040838503121561262f57600080fd5b600061263d85828601612560565b925050602061264e85828601612560565b9150509250929050565b60008060006060848603121561266d57600080fd5b600061267b86828701612560565b935050602061268c86828701612560565b925050604061269d868287016125de565b9150509250925092565b600080600080608085870312156126bd57600080fd5b60006126cb87828801612560565b94505060206126dc87828801612560565b93505060406126ed878288016125de565b925050606085013567ffffffffffffffff81111561270a57600080fd5b612716878288016125b4565b91505092959194509250565b6000806040838503121561273557600080fd5b600061274385828601612560565b925050602061275485828601612575565b9150509250929050565b6000806040838503121561277157600080fd5b600061277f85828601612560565b9250506020612790858286016125de565b9150509250929050565b6000602082840312156127ac57600080fd5b60006127ba8482850161258a565b91505092915050565b6000602082840312156127d557600080fd5b60006127e38482850161259f565b91505092915050565b6000602082840312156127fe57600080fd5b600061280c848285016125de565b91505092915050565b61281e816138cc565b82525050565b61282d816138de565b82525050565b600061283e82613774565b612848818561378a565b935061285881856020860161394f565b61286181613aea565b840191505092915050565b60006128778261377f565b612881818561379b565b935061289181856020860161394f565b61289a81613aea565b840191505092915050565b60006128b08261377f565b6128ba81856137ac565b93506128ca81856020860161394f565b80840191505092915050565b600081546128e381613982565b6128ed81866137ac565b9450600182166000811461290857600181146129195761294c565b60ff1983168652818601935061294c565b6129228561375f565b60005b8381101561294457815481890152600182019150602081019050612925565b838801955050505b50505092915050565b60006129626009836137ac565b91507f7b226e616d65223a2200000000000000000000000000000000000000000000006000830152600982019050919050565b60006129a260328361379b565b91507f4552433732313a207472616e7366657220746f206e6f6e20455243373231526560008301527f63656976657220696d706c656d656e74657200000000000000000000000000006020830152604082019050919050565b6000612a08601c8361379b565b91507f4552433732313a20746f6b656e20616c7265616479206d696e746564000000006000830152602082019050919050565b6000612a48600a836137ac565b91507f54484952445f574f5244000000000000000000000000000000000000000000006000830152600a82019050919050565b6000612a8860248361379b565b91507f4552433732313a207472616e7366657220746f20746865207a65726f2061646460008301527f72657373000000000000000000000000000000000000000000000000000000006020830152604082019050919050565b6000612aee60198361379b565b91507f4552433732313a20617070726f766520746f2063616c6c6572000000000000006000830152602082019050919050565b6000612b2e600b836137ac565b91507f5345434f4e445f574f52440000000000000000000000000000000000000000006000830152600b82019050919050565b6000612b6e602c8361379b565b91507f4552433732313a206f70657261746f7220717565727920666f72206e6f6e657860008301527f697374656e7420746f6b656e00000000000000000000000000000000000000006020830152604082019050919050565b6000612bd4600d836137ac565b91507f3c2f746578743e3c2f7376673e000000000000000000000000000000000000006000830152600d82019050919050565b6000612c1460388361379b565b91507f4552433732313a20617070726f76652063616c6c6572206973206e6f74206f7760008301527f6e6572206e6f7220617070726f76656420666f7220616c6c00000000000000006020830152604082019050919050565b6000612c7a602a8361379b565b91507f4552433732313a2062616c616e636520717565727920666f7220746865207a6560008301527f726f2061646472657373000000000000000000000000000000000000000000006020830152604082019050919050565b6000612ce060298361379b565b91507f4552433732313a206f776e657220717565727920666f72206e6f6e657869737460008301527f656e7420746f6b656e00000000000000000000000000000000000000000000006020830152604082019050919050565b6000612d46602e8361379b565b91507f45524337323155524953746f726167653a2055524920736574206f66206e6f6e60008301527f6578697374656e7420746f6b656e0000000000000000000000000000000000006020830152604082019050919050565b6000612dac6002836137ac565b91507f227d0000000000000000000000000000000000000000000000000000000000006000830152600282019050919050565b6000612dec60208361379b565b91507f4552433732313a206d696e7420746f20746865207a65726f20616464726573736000830152602082019050919050565b6000612e2c60318361379b565b91507f45524337323155524953746f726167653a2055524920717565727920666f722060008301527f6e6f6e6578697374656e7420746f6b656e0000000000000000000000000000006020830152604082019050919050565b6000612e92602c8361379b565b91507f4552433732313a20617070726f76656420717565727920666f72206e6f6e657860008301527f697374656e7420746f6b656e00000000000000000000000000000000000000006020830152604082019050919050565b6000612ef860298361379b565b91507f4552433732313a207472616e73666572206f6620746f6b656e2074686174206960008301527f73206e6f74206f776e00000000000000000000000000000000000000000000006020830152604082019050919050565b6000612f5e602f8361379b565b91507f4552433732314d657461646174613a2055524920717565727920666f72206e6f60008301527f6e6578697374656e7420746f6b656e00000000000000000000000000000000006020830152604082019050919050565b6000612fc460218361379b565b91507f4552433732313a20617070726f76616c20746f2063757272656e74206f776e6560008301527f72000000000000000000000000000000000000000000000000000000000000006020830152604082019050919050565b600061302a600a836137ac565b91507f46495253545f574f5244000000000000000000000000000000000000000000006000830152600a82019050919050565b600061306a601d836137ac565b91507f646174613a6170706c69636174696f6e2f6a736f6e3b6261736536342c0000006000830152601d82019050919050565b60006130aa60318361379b565b91507f4552433732313a207472616e736665722063616c6c6572206973206e6f74206f60008301527f776e6572206e6f7220617070726f7665640000000000000000000000000000006020830152604082019050919050565b60006131106005836137ac565b91507f434f4c4f520000000000000000000000000000000000000000000000000000006000830152600582019050919050565b60006131506061836137ac565b91507f222c20226465736372697074696f6e223a20224120686967686c79206163636c60008301527f61696d656420636f6c6c656374696f6e206f6620737175617265732e222c226960208301527f6d616765223a22646174613a696d6167652f7376672b786d6c3b62617365363460408301527f2c000000000000000000000000000000000000000000000000000000000000006060830152606182019050919050565b6131fe81613936565b82525050565b600061321082846128a5565b915081905092915050565b600061322782856128a5565b915061323382846128a5565b91508190509392505050565b600061324b82866128a5565b915061325782856128a5565b915061326382846128a5565b9150819050949350505050565b600061327c82876128d6565b915061328882866128a5565b915061329482856128d6565b91506132a082846128a5565b91506132ab82612bc7565b915081905095945050505050565b60006132c482612955565b91506132d082856128a5565b91506132db82613143565b91506132e782846128a5565b91506132f282612d9f565b91508190509392505050565b600061330982612a3b565b915061331582846128a5565b915081905092915050565b600061332b82612b21565b915061333782846128a5565b915081905092915050565b600061334d8261301d565b915061335982846128a5565b915081905092915050565b600061336f8261305d565b915061337b82846128a5565b915081905092915050565b600061339182613103565b915061339d82846128a5565b915081905092915050565b60006020820190506133bd6000830184612815565b92915050565b60006080820190506133d86000830187612815565b6133e56020830186612815565b6133f260408301856131f5565b81810360608301526134048184612833565b905095945050505050565b60006040820190506134246000830185612815565b61343160208301846131f5565b9392505050565b600060208201905061344d6000830184612824565b92915050565b6000602082019050818103600083015261346d818461286c565b905092915050565b6000604082019050818103600083015261348f818561286c565b905061349e60208301846131f5565b9392505050565b600060608201905081810360008301526134bf818661286c565b90506134ce60208301856131f5565b6134db6040830184612815565b949350505050565b600060208201905081810360008301526134fc81612995565b9050919050565b6000602082019050818103600083015261351c816129fb565b9050919050565b6000602082019050818103600083015261353c81612a7b565b9050919050565b6000602082019050818103600083015261355c81612ae1565b9050919050565b6000602082019050818103600083015261357c81612b61565b9050919050565b6000602082019050818103600083015261359c81612c07565b9050919050565b600060208201905081810360008301526135bc81612c6d565b9050919050565b600060208201905081810360008301526135dc81612cd3565b9050919050565b600060208201905081810360008301526135fc81612d39565b9050919050565b6000602082019050818103600083015261361c81612ddf565b9050919050565b6000602082019050818103600083015261363c81612e1f565b9050919050565b6000602082019050818103600083015261365c81612e85565b9050919050565b6000602082019050818103600083015261367c81612eeb565b9050919050565b6000602082019050818103600083015261369c81612f51565b9050919050565b600060208201905081810360008301526136bc81612fb7565b9050919050565b600060208201905081810360008301526136dc8161309d565b9050919050565b60006020820190506136f860008301846131f5565b92915050565b6000604051905081810181811067ffffffffffffffff8211171561372557613724613abb565b5b8060405250919050565b600067ffffffffffffffff82111561374a57613749613abb565b5b601f19601f8301169050602081019050919050565b60008190508160005260206000209050919050565b600081519050919050565b600081519050919050565b600082825260208201905092915050565b600082825260208201905092915050565b600081905092915050565b60006137c282613936565b91506137cd83613936565b9250827fffffffffffffffffffffffffffffffffffffffffffffffffffffffffffffffff0382111561380257613801613a2e565b5b828201905092915050565b600061381882613936565b915061382383613936565b92508261383357613832613a5d565b5b828204905092915050565b600061384982613936565b915061385483613936565b9250817fffffffffffffffffffffffffffffffffffffffffffffffffffffffffffffffff048311821515161561388d5761388c613a2e565b5b828202905092915050565b60006138a382613936565b91506138ae83613936565b9250828210156138c1576138c0613a2e565b5b828203905092915050565b60006138d782613916565b9050919050565b60008115159050919050565b60007fffffffff0000000000000000000000000000000000000000000000000000000082169050919050565b600073ffffffffffffffffffffffffffffffffffffffff82169050919050565b6000819050919050565b82818337600083830152505050565b60005b8381101561396d578082015181840152602081019050613952565b8381111561397c576000848401525b50505050565b6000600282049050600182168061399a57607f821691505b602082108114156139ae576139ad613a8c565b5b50919050565b60006139bf82613936565b91507fffffffffffffffffffffffffffffffffffffffffffffffffffffffffffffffff8214156139f2576139f1613a2e565b5b600182019050919050565b6000613a0882613936565b9150613a1383613936565b925082613a2357613a22613a5d565b5b828206905092915050565b7f4e487b7100000000000000000000000000000000000000000000000000000000600052601160045260246000fd5b7f4e487b7100000000000000000000000000000000000000000000000000000000600052601260045260246000fd5b7f4e487b7100000000000000000000000000000000000000000000000000000000600052602260045260246000fd5b7f4e487b7100000000000000000000000000000000000000000000000000000000600052604160045260246000fd5b6000601f19601f8301169050919050565b613b04816138cc565b8114613b0f57600080fd5b50565b613b1b816138de565b8114613b2657600080fd5b50565b613b32816138ea565b8114613b3d57600080fd5b50565b613b4981613936565b8114613b5457600080fd5b5056fe416e204e465420772f20494420257320686173206265656e206d696e74656420746f2025734142434445464748494a4b4c4d4e4f505152535455565758595a6162636465666768696a6b6c6d6e6f707172737475767778797a303132333435363738392b2fa26469706673582212205a1f909a53a048eabfca62f6bd72eaa4b4d67da241eb0e76d893cc2de4b7dac464736f6c634300080000333c73766720786d6c6e733d27687474703a2f2f7777772e77332e6f72672f323030302f73766727207072657365727665417370656374526174696f3d27784d696e594d696e206d656574272076696577426f783d273020302033353020333530273e3c7374796c653e2e62617365207b2066696c6c3a2077686974653b20666f6e742d66616d696c793a2073657269663b20666f6e742d73697a653a20323470783b207d3c2f7374796c653e3c726563742077696474683d273130302527206865696768743d2731303025272066696c6c3d27272f3e3c7465787420783d273530252720793d273530252720636c6173733d27626173652720646f6d696e616e742d626173656c696e653d276d6964646c652720746578742d616e63686f723d276d6964646c65273e",
  "linkReferences": {},
  "deployedLinkReferences": {}
}